{
	"_format": "hh-sol-artifact-1",
	"contractName": "Domains",
	"sourceName": "contracts/Domains.sol",
	"abi": [
		{
			"inputs": [
				{
					"internalType": "string",
					"name": "_tld",
					"type": "string"
				}
			],
			"stateMutability": "payable",
			"type": "constructor"
		},
		{
			"inputs": [],
			"name": "AlreadyRegistered",
			"type": "error"
		},
		{
			"inputs": [
				{
					"internalType": "string",
					"name": "name",
					"type": "string"
				}
			],
			"name": "InvalidName",
			"type": "error"
		},
		{
			"inputs": [],
			"name": "Unauthorized",
			"type": "error"
		},
		{
			"anonymous": false,
			"inputs": [
				{
					"indexed": true,
					"internalType": "address",
					"name": "owner",
					"type": "address"
				},
				{
					"indexed": true,
					"internalType": "address",
					"name": "approved",
					"type": "address"
				},
				{
					"indexed": true,
					"internalType": "uint256",
					"name": "tokenId",
					"type": "uint256"
				}
			],
			"name": "Approval",
			"type": "event"
		},
		{
			"anonymous": false,
			"inputs": [
				{
					"indexed": true,
					"internalType": "address",
					"name": "owner",
					"type": "address"
				},
				{
					"indexed": true,
					"internalType": "address",
					"name": "operator",
					"type": "address"
				},
				{
					"indexed": false,
					"internalType": "bool",
					"name": "approved",
					"type": "bool"
				}
			],
			"name": "ApprovalForAll",
			"type": "event"
		},
		{
			"anonymous": false,
			"inputs": [
				{
					"indexed": true,
					"internalType": "address",
					"name": "from",
					"type": "address"
				},
				{
					"indexed": true,
					"internalType": "address",
					"name": "to",
					"type": "address"
				},
				{
					"indexed": true,
					"internalType": "uint256",
					"name": "tokenId",
					"type": "uint256"
				}
			],
			"name": "Transfer",
			"type": "event"
		},
		{
			"inputs": [
				{
					"internalType": "address",
					"name": "to",
					"type": "address"
				},
				{
					"internalType": "uint256",
					"name": "tokenId",
					"type": "uint256"
				}
			],
			"name": "approve",
			"outputs": [],
			"stateMutability": "nonpayable",
			"type": "function"
		},
		{
			"inputs": [
				{
					"internalType": "address",
					"name": "owner",
					"type": "address"
				}
			],
			"name": "balanceOf",
			"outputs": [
				{
					"internalType": "uint256",
					"name": "",
					"type": "uint256"
				}
			],
			"stateMutability": "view",
			"type": "function"
		},
		{
			"inputs": [
				{
					"internalType": "string",
					"name": "a",
					"type": "string"
				},
				{
					"internalType": "string",
					"name": "b",
					"type": "string"
				}
			],
			"name": "compareStrings",
			"outputs": [
				{
					"internalType": "bool",
					"name": "",
					"type": "bool"
				}
			],
			"stateMutability": "pure",
			"type": "function"
		},
		{
			"inputs": [
				{
					"internalType": "string",
					"name": "",
					"type": "string"
				}
			],
			"name": "domains",
			"outputs": [
				{
					"internalType": "address",
					"name": "",
					"type": "address"
				}
			],
			"stateMutability": "view",
			"type": "function"
		},
		{
			"inputs": [
				{
					"internalType": "string",
					"name": "_name",
					"type": "string"
				}
			],
			"name": "getAddress",
			"outputs": [
				{
					"internalType": "address",
					"name": "",
					"type": "address"
				}
			],
			"stateMutability": "view",
			"type": "function"
		},
		{
			"inputs": [],
			"name": "getAllNames",
			"outputs": [
				{
					"internalType": "string[]",
					"name": "",
					"type": "string[]"
				}
			],
			"stateMutability": "view",
			"type": "function"
		},
		{
			"inputs": [
				{
					"internalType": "uint256",
					"name": "tokenId",
					"type": "uint256"
				}
			],
			"name": "getApproved",
			"outputs": [
				{
					"internalType": "address",
					"name": "",
					"type": "address"
				}
			],
			"stateMutability": "view",
			"type": "function"
		},
		{
			"inputs": [
				{
					"internalType": "string",
					"name": "_name",
					"type": "string"
				}
			],
			"name": "getDark",
			"outputs": [
				{
					"internalType": "string",
					"name": "",
					"type": "string"
				}
			],
			"stateMutability": "view",
			"type": "function"
		},
		{
			"inputs": [
				{
					"internalType": "address",
					"name": "owner",
					"type": "address"
				},
				{
					"internalType": "address",
					"name": "operator",
					"type": "address"
				}
			],
			"name": "isApprovedForAll",
			"outputs": [
				{
					"internalType": "bool",
					"name": "",
					"type": "bool"
				}
			],
			"stateMutability": "view",
			"type": "function"
		},
		{
			"inputs": [],
			"name": "isOwner",
			"outputs": [
				{
					"internalType": "bool",
					"name": "",
					"type": "bool"
				}
			],
			"stateMutability": "view",
			"type": "function"
		},
		{
			"inputs": [],
			"name": "name",
			"outputs": [
				{
					"internalType": "string",
					"name": "",
					"type": "string"
				}
			],
			"stateMutability": "view",
			"type": "function"
		},
		{
			"inputs": [
				{
					"internalType": "uint256",
					"name": "",
					"type": "uint256"
				}
			],
			"name": "names",
			"outputs": [
				{
					"internalType": "string",
					"name": "",
					"type": "string"
				}
			],
			"stateMutability": "view",
			"type": "function"
		},
		{
			"inputs": [],
			"name": "owner",
			"outputs": [
				{
					"internalType": "address payable",
					"name": "",
					"type": "address"
				}
			],
			"stateMutability": "view",
			"type": "function"
		},
		{
			"inputs": [
				{
					"internalType": "uint256",
					"name": "tokenId",
					"type": "uint256"
				}
			],
			"name": "ownerOf",
			"outputs": [
				{
					"internalType": "address",
					"name": "",
					"type": "address"
				}
			],
			"stateMutability": "view",
			"type": "function"
		},
		{
			"inputs": [
				{
					"internalType": "string",
					"name": "_name",
					"type": "string"
				}
			],
			"name": "price",
			"outputs": [
				{
					"internalType": "uint256",
					"name": "",
					"type": "uint256"
				}
			],
			"stateMutability": "pure",
			"type": "function"
		},
		{
			"inputs": [
				{
					"internalType": "string",
					"name": "",
					"type": "string"
				}
			],
			"name": "records",
			"outputs": [
				{
					"internalType": "string",
					"name": "",
					"type": "string"
				}
			],
			"stateMutability": "view",
			"type": "function"
		},
		{
			"inputs": [
				{
					"internalType": "string",
					"name": "name",
					"type": "string"
				}
			],
			"name": "register",
			"outputs": [],
			"stateMutability": "payable",
			"type": "function"
		},
		{
			"inputs": [
				{
					"internalType": "address",
					"name": "from",
					"type": "address"
				},
				{
					"internalType": "address",
					"name": "to",
					"type": "address"
				},
				{
					"internalType": "uint256",
					"name": "tokenId",
					"type": "uint256"
				}
			],
			"name": "safeTransferFrom",
			"outputs": [],
			"stateMutability": "nonpayable",
			"type": "function"
		},
		{
			"inputs": [
				{
					"internalType": "address",
					"name": "from",
					"type": "address"
				},
				{
					"internalType": "address",
					"name": "to",
					"type": "address"
				},
				{
					"internalType": "uint256",
					"name": "tokenId",
					"type": "uint256"
				},
				{
					"internalType": "bytes",
					"name": "_data",
					"type": "bytes"
				}
			],
			"name": "safeTransferFrom",
			"outputs": [],
			"stateMutability": "nonpayable",
			"type": "function"
		},
		{
			"inputs": [
				{
					"internalType": "address",
					"name": "operator",
					"type": "address"
				},
				{
					"internalType": "bool",
					"name": "approved",
					"type": "bool"
				}
			],
			"name": "setApprovalForAll",
			"outputs": [],
			"stateMutability": "nonpayable",
			"type": "function"
		},
		{
			"inputs": [
				{
					"internalType": "string",
					"name": "_name",
					"type": "string"
				},
				{
					"internalType": "string",
					"name": "_why",
					"type": "string"
				}
			],
			"name": "setDark",
			"outputs": [],
			"stateMutability": "nonpayable",
			"type": "function"
		},
		{
			"inputs": [
				{
					"internalType": "bytes4",
					"name": "interfaceId",
					"type": "bytes4"
				}
			],
			"name": "supportsInterface",
			"outputs": [
				{
					"internalType": "bool",
					"name": "",
					"type": "bool"
				}
			],
			"stateMutability": "view",
			"type": "function"
		},
		{
			"inputs": [],
			"name": "symbol",
			"outputs": [
				{
					"internalType": "string",
					"name": "",
					"type": "string"
				}
			],
			"stateMutability": "view",
			"type": "function"
		},
		{
			"inputs": [],
			"name": "tld",
			"outputs": [
				{
					"internalType": "string",
					"name": "",
					"type": "string"
				}
			],
			"stateMutability": "view",
			"type": "function"
		},
		{
			"inputs": [
				{
					"internalType": "uint256",
					"name": "tokenId",
					"type": "uint256"
				}
			],
			"name": "tokenURI",
			"outputs": [
				{
					"internalType": "string",
					"name": "",
					"type": "string"
				}
			],
			"stateMutability": "view",
			"type": "function"
		},
		{
			"inputs": [
				{
					"internalType": "address",
					"name": "from",
					"type": "address"
				},
				{
					"internalType": "address",
					"name": "to",
					"type": "address"
				},
				{
					"internalType": "uint256",
					"name": "tokenId",
					"type": "uint256"
				}
			],
			"name": "transferFrom",
			"outputs": [],
			"stateMutability": "nonpayable",
			"type": "function"
		},
		{
			"inputs": [
				{
					"internalType": "string",
					"name": "name",
					"type": "string"
				}
			],
			"name": "valid",
			"outputs": [
				{
					"internalType": "bool",
					"name": "",
					"type": "bool"
				}
			],
			"stateMutability": "pure",
			"type": "function"
		},
		{
			"inputs": [],
			"name": "withdraw",
			"outputs": [],
			"stateMutability": "nonpayable",
			"type": "function"
		}
	],
	"bytecode": "0x608060405260405180612ec00160405280612e98815260200162004ebb612e9891396007908051906020019062000038929190620001ad565b506040518060400160405280600d81526020017f3c2f746578743e3c2f7376673e00000000000000000000000000000000000000815250600a908051906020019062000086929190620001ad565b5060405162007d5338038062007d538339818101604052810190620000ac9190620003fa565b6040518060400160405280600b81526020017f446172746853696465722e0000000000000000000000000000000000000000008152506040518060400160405280600281526020017f4453000000000000000000000000000000000000000000000000000000000000815250816000908051906020019062000130929190620001ad565b50806001908051906020019062000149929190620001ad565b50505033600960006101000a81548173ffffffffffffffffffffffffffffffffffffffff021916908373ffffffffffffffffffffffffffffffffffffffff16021790555080600b9080519060200190620001a5929190620001ad565b5050620004b0565b828054620001bb906200047a565b90600052602060002090601f016020900481019282620001df57600085556200022b565b82601f10620001fa57805160ff19168380011785556200022b565b828001600101855582156200022b579182015b828111156200022a5782518255916020019190600101906200020d565b5b5090506200023a91906200023e565b5090565b5b80821115620002595760008160009055506001016200023f565b5090565b6000604051905090565b600080fd5b600080fd5b600080fd5b600080fd5b6000601f19601f8301169050919050565b7f4e487b7100000000000000000000000000000000000000000000000000000000600052604160045260246000fd5b620002c6826200027b565b810181811067ffffffffffffffff82111715620002e857620002e76200028c565b5b80604052505050565b6000620002fd6200025d565b90506200030b8282620002bb565b919050565b600067ffffffffffffffff8211156200032e576200032d6200028c565b5b62000339826200027b565b9050602081019050919050565b60005b838110156200036657808201518184015260208101905062000349565b8381111562000376576000848401525b50505050565b6000620003936200038d8462000310565b620002f1565b905082815260208101848484011115620003b257620003b162000276565b5b620003bf84828562000346565b509392505050565b600082601f830112620003df57620003de62000271565b5b8151620003f18482602086016200037c565b91505092915050565b60006020828403121562000413576200041262000267565b5b600082015167ffffffffffffffff8111156200043457620004336200026c565b5b6200044284828501620003c7565b91505092915050565b7f4e487b7100000000000000000000000000000000000000000000000000000000600052602260045260246000fd5b600060028204905060018216806200049357607f821691505b60208210811415620004aa57620004a96200044b565b5b50919050565b6149fb80620004c06000396000f3fe6080604052600436106101b75760003560e01c80638da5cb5b116100ec578063bed34bba1161008a578063e985e9c511610064578063e985e9c51461067c578063f2c298be146106b9578063fb825e5f146106d5578063fe2c619814610700576101b7565b8063bed34bba146105c5578063bf40fac114610602578063c87b56dd1461063f576101b7565b80639791c097116100c65780639791c097146104f9578063a22cb46514610536578063aea4d2891461055f578063b88d4fde1461059c576101b7565b80638da5cb5b146104785780638f32d59b146104a357806395d89b41146104ce576101b7565b80633ccfd60b116101595780634622ab03116101335780634622ab0314610384578063541e771d146103c15780636352211e146103fe57806370a082311461043b576101b7565b80633ccfd60b1461031b57806342842e0e1461033257806342a2ca151461035b576101b7565b8063095ea7b311610195578063095ea7b31461026157806323b872dd1461028a57806326449235146102b35780632d551432146102f0576101b7565b806301ffc9a7146101bc57806306fdde03146101f9578063081812fc14610224575b600080fd5b3480156101c857600080fd5b506101e360048036038101906101de9190612e34565b61073d565b6040516101f09190612e7c565b60405180910390f35b34801561020557600080fd5b5061020e61081f565b60405161021b9190612f30565b60405180910390f35b34801561023057600080fd5b5061024b60048036038101906102469190612f88565b6108b1565b6040516102589190612ff6565b60405180910390f35b34801561026d57600080fd5b506102886004803603810190610283919061303d565b610936565b005b34801561029657600080fd5b506102b160048036038101906102ac919061307d565b610a4e565b005b3480156102bf57600080fd5b506102da60048036038101906102d59190613205565b610aae565b6040516102e79190612ff6565b60405180910390f35b3480156102fc57600080fd5b50610305610af7565b6040516103129190612f30565b60405180910390f35b34801561032757600080fd5b50610330610b85565b005b34801561033e57600080fd5b506103596004803603810190610354919061307d565b610c4b565b005b34801561036757600080fd5b50610382600480360381019061037d91906132ae565b610c6b565b005b34801561039057600080fd5b506103ab60048036038101906103a69190612f88565b610d46565b6040516103b89190612f30565b60405180910390f35b3480156103cd57600080fd5b506103e860048036038101906103e39190613205565b610de6565b6040516103f59190612f30565b60405180910390f35b34801561040a57600080fd5b5061042560048036038101906104209190612f88565b610e9c565b6040516104329190612ff6565b60405180910390f35b34801561044757600080fd5b50610462600480360381019061045d919061332f565b610f4e565b60405161046f919061336b565b60405180910390f35b34801561048457600080fd5b5061048d611006565b60405161049a91906133a7565b60405180910390f35b3480156104af57600080fd5b506104b861102c565b6040516104c59190612e7c565b60405180910390f35b3480156104da57600080fd5b506104e3611084565b6040516104f09190612f30565b60405180910390f35b34801561050557600080fd5b50610520600480360381019061051b91906133c2565b611116565b60405161052d9190612e7c565b60405180910390f35b34801561054257600080fd5b5061055d6004803603810190610558919061343b565b61125c565b005b34801561056b57600080fd5b50610586600480360381019061058191906133c2565b611272565b6040516105939190612f30565b60405180910390f35b3480156105a857600080fd5b506105c360048036038101906105be919061351c565b611325565b005b3480156105d157600080fd5b506105ec60048036038101906105e7919061359f565b611387565b6040516105f99190612e7c565b60405180910390f35b34801561060e57600080fd5b50610629600480360381019061062491906133c2565b6113e0565b6040516106369190612ff6565b60405180910390f35b34801561064b57600080fd5b5061066660048036038101906106619190612f88565b61142b565b6040516106739190612f30565b60405180910390f35b34801561068857600080fd5b506106a3600480360381019061069e9190613617565b61157d565b6040516106b09190612e7c565b60405180910390f35b6106d360048036038101906106ce91906133c2565b611611565b005b3480156106e157600080fd5b506106ea61191c565b6040516106f79190613763565b60405180910390f35b34801561070c57600080fd5b50610727600480360381019061072291906133c2565b611abc565b604051610734919061336b565b60405180910390f35b60007f80ac58cd000000000000000000000000000000000000000000000000000000007bffffffffffffffffffffffffffffffffffffffffffffffffffffffff1916827bffffffffffffffffffffffffffffffffffffffffffffffffffffffff1916148061080857507f5b5e139f000000000000000000000000000000000000000000000000000000007bffffffffffffffffffffffffffffffffffffffffffffffffffffffff1916827bffffffffffffffffffffffffffffffffffffffffffffffffffffffff1916145b80610818575061081782611b45565b5b9050919050565b60606000805461082e906137b4565b80601f016020809104026020016040519081016040528092919081815260200182805461085a906137b4565b80156108a75780601f1061087c576101008083540402835291602001916108a7565b820191906000526020600020905b81548152906001019060200180831161088a57829003601f168201915b5050505050905090565b60006108bc82611baf565b6108fb576040517f08c379a00000000000000000000000000000000000000000000000000000000081526004016108f290613858565b60405180910390fd5b6004600083815260200190815260200160002060009054906101000a900473ffffffffffffffffffffffffffffffffffffffff169050919050565b600061094182610e9c565b90508073ffffffffffffffffffffffffffffffffffffffff168373ffffffffffffffffffffffffffffffffffffffff1614156109b2576040517f08c379a00000000000000000000000000000000000000000000000000000000081526004016109a9906138ea565b60405180910390fd5b8073ffffffffffffffffffffffffffffffffffffffff166109d1611c1b565b73ffffffffffffffffffffffffffffffffffffffff161480610a0057506109ff816109fa611c1b565b61157d565b5b610a3f576040517f08c379a0000000000000000000000000000000000000000000000000000000008152600401610a369061397c565b60405180910390fd5b610a498383611c23565b505050565b610a5f610a59611c1b565b82611cdc565b610a9e576040517f08c379a0000000000000000000000000000000000000000000000000000000008152600401610a9590613a0e565b60405180910390fd5b610aa9838383611dba565b505050565b600c818051602081018201805184825260208301602085012081835280955050505050506000915054906101000a900473ffffffffffffffffffffffffffffffffffffffff1681565b600b8054610b04906137b4565b80601f0160208091040260200160405190810160405280929190818152602001828054610b30906137b4565b8015610b7d5780601f10610b5257610100808354040283529160200191610b7d565b820191906000526020600020905b815481529060010190602001808311610b6057829003601f168201915b505050505081565b610b8d61102c565b610b9657600080fd5b600047905060003373ffffffffffffffffffffffffffffffffffffffff1682604051610bc190613a5f565b60006040518083038185875af1925050503d8060008114610bfe576040519150601f19603f3d011682016040523d82523d6000602084013e610c03565b606091505b5050905080610c47576040517f08c379a0000000000000000000000000000000000000000000000000000000008152600401610c3e90613ac0565b60405180910390fd5b5050565b610c6683838360405180602001604052806000815250611325565b505050565b3373ffffffffffffffffffffffffffffffffffffffff16600c8585604051610c94929190613b10565b908152602001604051809103902060009054906101000a900473ffffffffffffffffffffffffffffffffffffffff1673ffffffffffffffffffffffffffffffffffffffff1614610d10576040517f82b4290000000000000000000000000000000000000000000000000000000000815260040160405180910390fd5b8181600d8686604051610d24929190613b10565b90815260200160405180910390209190610d3f929190612c9f565b5050505050565b600e6020528060005260406000206000915090508054610d65906137b4565b80601f0160208091040260200160405190810160405280929190818152602001828054610d91906137b4565b8015610dde5780601f10610db357610100808354040283529160200191610dde565b820191906000526020600020905b815481529060010190602001808311610dc157829003601f168201915b505050505081565b600d818051602081018201805184825260208301602085012081835280955050505050506000915090508054610e1b906137b4565b80601f0160208091040260200160405190810160405280929190818152602001828054610e47906137b4565b8015610e945780601f10610e6957610100808354040283529160200191610e94565b820191906000526020600020905b815481529060010190602001808311610e7757829003601f168201915b505050505081565b6000806002600084815260200190815260200160002060009054906101000a900473ffffffffffffffffffffffffffffffffffffffff169050600073ffffffffffffffffffffffffffffffffffffffff168173ffffffffffffffffffffffffffffffffffffffff161415610f45576040517f08c379a0000000000000000000000000000000000000000000000000000000008152600401610f3c90613b9b565b60405180910390fd5b80915050919050565b60008073ffffffffffffffffffffffffffffffffffffffff168273ffffffffffffffffffffffffffffffffffffffff161415610fbf576040517f08c379a0000000000000000000000000000000000000000000000000000000008152600401610fb690613c2d565b60405180910390fd5b600360008373ffffffffffffffffffffffffffffffffffffffff1673ffffffffffffffffffffffffffffffffffffffff168152602001908152602001600020549050919050565b600960009054906101000a900473ffffffffffffffffffffffffffffffffffffffff1681565b6000600960009054906101000a900473ffffffffffffffffffffffffffffffffffffffff1673ffffffffffffffffffffffffffffffffffffffff163373ffffffffffffffffffffffffffffffffffffffff1614905090565b606060018054611093906137b4565b80601f01602080910402602001604051908101604052809291908181526020018280546110bf906137b4565b801561110c5780601f106110e15761010080835404028352916020019161110c565b820191906000526020600020905b8154815290600101906020018083116110ef57829003601f168201915b5050505050905090565b600061119b83838080601f016020809104026020016040519081016040528093929190818152602001838380828437600081840152601f19601f820116905080830192505050505050506040518060400160405280600481526020017f6a65646900000000000000000000000000000000000000000000000000000000815250611387565b156111a95760009050611256565b60036111f884848080601f016020809104026020016040519081016040528093929190818152602001838380828437600081840152601f19601f82011690508083019250505050505050612021565b101580156112535750600a61125084848080601f016020809104026020016040519081016040528093929190818152602001838380828437600081840152601f19601f82011690508083019250505050505050612021565b11155b90505b92915050565b61126e611267611c1b565b83836121d6565b5050565b6060600d8383604051611286929190613b10565b9081526020016040518091039020805461129f906137b4565b80601f01602080910402602001604051908101604052809291908181526020018280546112cb906137b4565b80156113185780601f106112ed57610100808354040283529160200191611318565b820191906000526020600020905b8154815290600101906020018083116112fb57829003601f168201915b5050505050905092915050565b611336611330611c1b565b83611cdc565b611375576040517f08c379a000000000000000000000000000000000000000000000000000000000815260040161136c90613a0e565b60405180910390fd5b61138184848484612343565b50505050565b60008160405160200161139a9190613c7e565b60405160208183030381529060405280519060200120836040516020016113c19190613c7e565b6040516020818303038152906040528051906020012014905092915050565b6000600c83836040516113f4929190613b10565b908152602001604051809103902060009054906101000a900473ffffffffffffffffffffffffffffffffffffffff16905092915050565b606061143682611baf565b611475576040517f08c379a000000000000000000000000000000000000000000000000000000000815260040161146c90613d07565b60405180910390fd5b6000600660008481526020019081526020016000208054611495906137b4565b80601f01602080910402602001604051908101604052809291908181526020018280546114c1906137b4565b801561150e5780601f106114e35761010080835404028352916020019161150e565b820191906000526020600020905b8154815290600101906020018083116114f157829003601f168201915b50505050509050600061151f61239f565b9050600081511415611535578192505050611578565b60008251111561156a578082604051602001611552929190613d27565b60405160208183030381529060405292505050611578565b611573846123b6565b925050505b919050565b6000600560008473ffffffffffffffffffffffffffffffffffffffff1673ffffffffffffffffffffffffffffffffffffffff16815260200190815260200160002060008373ffffffffffffffffffffffffffffffffffffffff1673ffffffffffffffffffffffffffffffffffffffff16815260200190815260200160002060009054906101000a900460ff16905092915050565b600073ffffffffffffffffffffffffffffffffffffffff16600c838360405161163b929190613b10565b908152602001604051809103902060009054906101000a900473ffffffffffffffffffffffffffffffffffffffff1673ffffffffffffffffffffffffffffffffffffffff16146116b7576040517f3a81d6fc00000000000000000000000000000000000000000000000000000000815260040160405180910390fd5b6116c18282611116565b6117045781816040517f7f19f48d0000000000000000000000000000000000000000000000000000000081526004016116fb929190613d78565b60405180910390fd5b60006117108383611abc565b905080341015611755576040517f08c379a000000000000000000000000000000000000000000000000000000000815260040161174c90613de8565b60405180910390fd5b60008383600b60405160200161176d93929190613ee8565b60405160208183030381529060405290506000600782600a60405160200161179793929190613f19565b604051602081830303815290604052905060006117b4600861245d565b9050600061180587878080601f016020809104026020016040519081016040528093929190818152602001838380828437600081840152601f19601f82011690508083019250505050505050612021565b905060006118128261246b565b9050600061184a86611823876125cc565b84604051602001611836939291906140c6565b6040516020818303038152906040526125cc565b905060008160405160200161185f919061416f565b604051602081830303815290604052905061187a3386612745565b6118848582612763565b33600c8b8b604051611897929190613b10565b908152602001604051809103902060006101000a81548173ffffffffffffffffffffffffffffffffffffffff021916908373ffffffffffffffffffffffffffffffffffffffff1602179055508989600e60008881526020019081526020016000209190611905929190612c9f565b5061191060086127d7565b50505050505050505050565b6060600061192a600861245d565b67ffffffffffffffff811115611943576119426130da565b5b60405190808252806020026020018201604052801561197657816020015b60608152602001906001900390816119615790505b50905060005b611986600861245d565b811015611ab457600e600082815260200190815260200160002080546119ab906137b4565b80601f01602080910402602001604051908101604052809291908181526020018280546119d7906137b4565b8015611a245780601f106119f957610100808354040283529160200191611a24565b820191906000526020600020905b815481529060010190602001808311611a0757829003601f168201915b5050505050828281518110611a3c57611a3b614191565b5b6020026020010181905250611aa16040518060400160405280601781526020017f4e616d6520666f7220746f6b656e20256420697320257300000000000000000081525082848481518110611a9457611a93614191565b5b60200260200101516127ed565b8080611aac906141ef565b91505061197c565b508091505090565b600080611b0c84848080601f016020809104026020016040519081016040528093929190818152602001838380828437600081840152601f19601f82011690508083019250505050505050612021565b905060008111611b1b57600080fd5b60058111611b3357666a94d74f430000915050611b3f565b662386f26fc100009150505b92915050565b60007f01ffc9a7000000000000000000000000000000000000000000000000000000007bffffffffffffffffffffffffffffffffffffffffffffffffffffffff1916827bffffffffffffffffffffffffffffffffffffffffffffffffffffffff1916149050919050565b60008073ffffffffffffffffffffffffffffffffffffffff166002600084815260200190815260200160002060009054906101000a900473ffffffffffffffffffffffffffffffffffffffff1673ffffffffffffffffffffffffffffffffffffffff1614159050919050565b600033905090565b816004600083815260200190815260200160002060006101000a81548173ffffffffffffffffffffffffffffffffffffffff021916908373ffffffffffffffffffffffffffffffffffffffff160217905550808273ffffffffffffffffffffffffffffffffffffffff16611c9683610e9c565b73ffffffffffffffffffffffffffffffffffffffff167f8c5be1e5ebec7d5bd14f71427d1e84f3dd0314c0f7b2291e5b200ac8c7c3b92560405160405180910390a45050565b6000611ce782611baf565b611d26576040517f08c379a0000000000000000000000000000000000000000000000000000000008152600401611d1d906142aa565b60405180910390fd5b6000611d3183610e9c565b90508073ffffffffffffffffffffffffffffffffffffffff168473ffffffffffffffffffffffffffffffffffffffff161480611d735750611d72818561157d565b5b80611db157508373ffffffffffffffffffffffffffffffffffffffff16611d99846108b1565b73ffffffffffffffffffffffffffffffffffffffff16145b91505092915050565b8273ffffffffffffffffffffffffffffffffffffffff16611dda82610e9c565b73ffffffffffffffffffffffffffffffffffffffff1614611e30576040517f08c379a0000000000000000000000000000000000000000000000000000000008152600401611e279061433c565b60405180910390fd5b600073ffffffffffffffffffffffffffffffffffffffff168273ffffffffffffffffffffffffffffffffffffffff161415611ea0576040517f08c379a0000000000000000000000000000000000000000000000000000000008152600401611e97906143ce565b60405180910390fd5b611eab83838361288c565b611eb6600082611c23565b6001600360008573ffffffffffffffffffffffffffffffffffffffff1673ffffffffffffffffffffffffffffffffffffffff1681526020019081526020016000206000828254611f0691906143ee565b925050819055506001600360008473ffffffffffffffffffffffffffffffffffffffff1673ffffffffffffffffffffffffffffffffffffffff1681526020019081526020016000206000828254611f5d9190614422565b92505081905550816002600083815260200190815260200160002060006101000a81548173ffffffffffffffffffffffffffffffffffffffff021916908373ffffffffffffffffffffffffffffffffffffffff160217905550808273ffffffffffffffffffffffffffffffffffffffff168473ffffffffffffffffffffffffffffffffffffffff167fddf252ad1be2c89b69c2b068fc378daa952ba7f163c4a11628f55a4df523b3ef60405160405180910390a461201c838383612891565b505050565b60008060008084519050600092505b808210156121cb57600085838151811061204d5761204c614191565b5b602001015160f81c60f81b9050608060f81b817effffffffffffffffffffffffffffffffffffffffffffffffffffffffffffff1916101561209c576001836120959190614422565b92506121b7565b60e060f81b817effffffffffffffffffffffffffffffffffffffffffffffffffffffffffffff191610156120de576002836120d79190614422565b92506121b6565b60f060f81b817effffffffffffffffffffffffffffffffffffffffffffffffffffffffffffff19161015612120576003836121199190614422565b92506121b5565b60f8801b817effffffffffffffffffffffffffffffffffffffffffffffffffffffffffffff191610156121615760048361215a9190614422565b92506121b4565b60fc60f81b817effffffffffffffffffffffffffffffffffffffffffffffffffffffffffffff191610156121a35760058361219c9190614422565b92506121b3565b6006836121b09190614422565b92505b5b5b5b5b5082806121c3906141ef565b935050612030565b829350505050919050565b8173ffffffffffffffffffffffffffffffffffffffff168373ffffffffffffffffffffffffffffffffffffffff161415612245576040517f08c379a000000000000000000000000000000000000000000000000000000000815260040161223c906144c4565b60405180910390fd5b80600560008573ffffffffffffffffffffffffffffffffffffffff1673ffffffffffffffffffffffffffffffffffffffff16815260200190815260200160002060008473ffffffffffffffffffffffffffffffffffffffff1673ffffffffffffffffffffffffffffffffffffffff16815260200190815260200160002060006101000a81548160ff0219169083151502179055508173ffffffffffffffffffffffffffffffffffffffff168373ffffffffffffffffffffffffffffffffffffffff167f17307eab39ab6107e8899845ad3d59bd9653f200f220920489ca2b5937696c31836040516123369190612e7c565b60405180910390a3505050565b61234e848484611dba565b61235a84848484612896565b612399576040517f08c379a000000000000000000000000000000000000000000000000000000000815260040161239090614556565b60405180910390fd5b50505050565b606060405180602001604052806000815250905090565b60606123c182611baf565b612400576040517f08c379a00000000000000000000000000000000000000000000000000000000081526004016123f7906145e8565b60405180910390fd5b600061240a61239f565b9050600081511161242a5760405180602001604052806000815250612455565b806124348461246b565b604051602001612445929190613d27565b6040516020818303038152906040525b915050919050565b600081600001549050919050565b606060008214156124b3576040518060400160405280600181526020017f300000000000000000000000000000000000000000000000000000000000000081525090506125c7565b600082905060005b600082146124e55780806124ce906141ef565b915050600a826124de9190614637565b91506124bb565b60008167ffffffffffffffff811115612501576125006130da565b5b6040519080825280601f01601f1916602001820160405280156125335781602001600182028036833780820191505090505b5090505b600085146125c05760018261254c91906143ee565b9150600a8561255b9190614668565b60306125679190614422565b60f81b81838151811061257d5761257c614191565b5b60200101907effffffffffffffffffffffffffffffffffffffffffffffffffffffffffffff1916908160001a905350600a856125b99190614637565b9450612537565b8093505050505b919050565b60606000825114156125ef57604051806020016040528060008152509050612740565b6000604051806060016040528060408152602001614986604091399050600060036002855161261e9190614422565b6126289190614637565b60046126349190614699565b905060006020826126459190614422565b67ffffffffffffffff81111561265e5761265d6130da565b5b6040519080825280601f01601f1916602001820160405280156126905781602001600182028036833780820191505090505b509050818152600183018586518101602084015b818310156126ff576003830192508251603f8160121c168501518253600182019150603f81600c1c168501518253600182019150603f8160061c168501518253600182019150603f81168501518253600182019150506126a4565b600389510660018114612719576002811461272957612734565b613d3d60f01b6002830352612734565b603d60f81b60018303525b50505050508093505050505b919050565b61275f828260405180602001604052806000815250612a1e565b5050565b61276c82611baf565b6127ab576040517f08c379a00000000000000000000000000000000000000000000000000000000081526004016127a290614765565b60405180910390fd5b806006600084815260200190815260200160002090805190602001906127d2929190612d25565b505050565b6001816000016000828254019250508190555050565b61288783838360405160240161280593929190614785565b6040516020818303038152906040527fa3f5c739000000000000000000000000000000000000000000000000000000007bffffffffffffffffffffffffffffffffffffffffffffffffffffffff19166020820180517bffffffffffffffffffffffffffffffffffffffffffffffffffffffff8381831617835250505050612a79565b505050565b505050565b505050565b60006128b78473ffffffffffffffffffffffffffffffffffffffff16612aa2565b15612a11578373ffffffffffffffffffffffffffffffffffffffff1663150b7a026128e0611c1b565b8786866040518563ffffffff1660e01b8152600401612902949392919061481f565b6020604051808303816000875af192505050801561293e57506040513d601f19601f8201168201806040525081019061293b9190614880565b60015b6129c1573d806000811461296e576040519150601f19603f3d011682016040523d82523d6000602084013e612973565b606091505b506000815114156129b9576040517f08c379a00000000000000000000000000000000000000000000000000000000081526004016129b090614556565b60405180910390fd5b805181602001fd5b63150b7a0260e01b7bffffffffffffffffffffffffffffffffffffffffffffffffffffffff1916817bffffffffffffffffffffffffffffffffffffffffffffffffffffffff191614915050612a16565b600190505b949350505050565b612a288383612ac5565b612a356000848484612896565b612a74576040517f08c379a0000000000000000000000000000000000000000000000000000000008152600401612a6b90614556565b60405180910390fd5b505050565b60008151905060006a636f6e736f6c652e6c6f679050602083016000808483855afa5050505050565b6000808273ffffffffffffffffffffffffffffffffffffffff163b119050919050565b600073ffffffffffffffffffffffffffffffffffffffff168273ffffffffffffffffffffffffffffffffffffffff161415612b35576040517f08c379a0000000000000000000000000000000000000000000000000000000008152600401612b2c906148f9565b60405180910390fd5b612b3e81611baf565b15612b7e576040517f08c379a0000000000000000000000000000000000000000000000000000000008152600401612b7590614965565b60405180910390fd5b612b8a6000838361288c565b6001600360008473ffffffffffffffffffffffffffffffffffffffff1673ffffffffffffffffffffffffffffffffffffffff1681526020019081526020016000206000828254612bda9190614422565b92505081905550816002600083815260200190815260200160002060006101000a81548173ffffffffffffffffffffffffffffffffffffffff021916908373ffffffffffffffffffffffffffffffffffffffff160217905550808273ffffffffffffffffffffffffffffffffffffffff16600073ffffffffffffffffffffffffffffffffffffffff167fddf252ad1be2c89b69c2b068fc378daa952ba7f163c4a11628f55a4df523b3ef60405160405180910390a4612c9b60008383612891565b5050565b828054612cab906137b4565b90600052602060002090601f016020900481019282612ccd5760008555612d14565b82601f10612ce657803560ff1916838001178555612d14565b82800160010185558215612d14579182015b82811115612d13578235825591602001919060010190612cf8565b5b509050612d219190612dab565b5090565b828054612d31906137b4565b90600052602060002090601f016020900481019282612d535760008555612d9a565b82601f10612d6c57805160ff1916838001178555612d9a565b82800160010185558215612d9a579182015b82811115612d99578251825591602001919060010190612d7e565b5b509050612da79190612dab565b5090565b5b80821115612dc4576000816000905550600101612dac565b5090565b6000604051905090565b600080fd5b600080fd5b60007fffffffff0000000000000000000000000000000000000000000000000000000082169050919050565b612e1181612ddc565b8114612e1c57600080fd5b50565b600081359050612e2e81612e08565b92915050565b600060208284031215612e4a57612e49612dd2565b5b6000612e5884828501612e1f565b91505092915050565b60008115159050919050565b612e7681612e61565b82525050565b6000602082019050612e916000830184612e6d565b92915050565b600081519050919050565b600082825260208201905092915050565b60005b83811015612ed1578082015181840152602081019050612eb6565b83811115612ee0576000848401525b50505050565b6000601f19601f8301169050919050565b6000612f0282612e97565b612f0c8185612ea2565b9350612f1c818560208601612eb3565b612f2581612ee6565b840191505092915050565b60006020820190508181036000830152612f4a8184612ef7565b905092915050565b6000819050919050565b612f6581612f52565b8114612f7057600080fd5b50565b600081359050612f8281612f5c565b92915050565b600060208284031215612f9e57612f9d612dd2565b5b6000612fac84828501612f73565b91505092915050565b600073ffffffffffffffffffffffffffffffffffffffff82169050919050565b6000612fe082612fb5565b9050919050565b612ff081612fd5565b82525050565b600060208201905061300b6000830184612fe7565b92915050565b61301a81612fd5565b811461302557600080fd5b50565b60008135905061303781613011565b92915050565b6000806040838503121561305457613053612dd2565b5b600061306285828601613028565b925050602061307385828601612f73565b9150509250929050565b60008060006060848603121561309657613095612dd2565b5b60006130a486828701613028565b93505060206130b586828701613028565b92505060406130c686828701612f73565b9150509250925092565b600080fd5b600080fd5b7f4e487b7100000000000000000000000000000000000000000000000000000000600052604160045260246000fd5b61311282612ee6565b810181811067ffffffffffffffff82111715613131576131306130da565b5b80604052505050565b6000613144612dc8565b90506131508282613109565b919050565b600067ffffffffffffffff8211156131705761316f6130da565b5b61317982612ee6565b9050602081019050919050565b82818337600083830152505050565b60006131a86131a384613155565b61313a565b9050828152602081018484840111156131c4576131c36130d5565b5b6131cf848285613186565b509392505050565b600082601f8301126131ec576131eb6130d0565b5b81356131fc848260208601613195565b91505092915050565b60006020828403121561321b5761321a612dd2565b5b600082013567ffffffffffffffff81111561323957613238612dd7565b5b613245848285016131d7565b91505092915050565b600080fd5b600080fd5b60008083601f84011261326e5761326d6130d0565b5b8235905067ffffffffffffffff81111561328b5761328a61324e565b5b6020830191508360018202830111156132a7576132a6613253565b5b9250929050565b600080600080604085870312156132c8576132c7612dd2565b5b600085013567ffffffffffffffff8111156132e6576132e5612dd7565b5b6132f287828801613258565b9450945050602085013567ffffffffffffffff81111561331557613314612dd7565b5b61332187828801613258565b925092505092959194509250565b60006020828403121561334557613344612dd2565b5b600061335384828501613028565b91505092915050565b61336581612f52565b82525050565b6000602082019050613380600083018461335c565b92915050565b600061339182612fb5565b9050919050565b6133a181613386565b82525050565b60006020820190506133bc6000830184613398565b92915050565b600080602083850312156133d9576133d8612dd2565b5b600083013567ffffffffffffffff8111156133f7576133f6612dd7565b5b61340385828601613258565b92509250509250929050565b61341881612e61565b811461342357600080fd5b50565b6000813590506134358161340f565b92915050565b6000806040838503121561345257613451612dd2565b5b600061346085828601613028565b925050602061347185828601613426565b9150509250929050565b600067ffffffffffffffff821115613496576134956130da565b5b61349f82612ee6565b9050602081019050919050565b60006134bf6134ba8461347b565b61313a565b9050828152602081018484840111156134db576134da6130d5565b5b6134e6848285613186565b509392505050565b600082601f830112613503576135026130d0565b5b81356135138482602086016134ac565b91505092915050565b6000806000806080858703121561353657613535612dd2565b5b600061354487828801613028565b945050602061355587828801613028565b935050604061356687828801612f73565b925050606085013567ffffffffffffffff81111561358757613586612dd7565b5b613593878288016134ee565b91505092959194509250565b600080604083850312156135b6576135b5612dd2565b5b600083013567ffffffffffffffff8111156135d4576135d3612dd7565b5b6135e0858286016131d7565b925050602083013567ffffffffffffffff81111561360157613600612dd7565b5b61360d858286016131d7565b9150509250929050565b6000806040838503121561362e5761362d612dd2565b5b600061363c85828601613028565b925050602061364d85828601613028565b9150509250929050565b600081519050919050565b600082825260208201905092915050565b6000819050602082019050919050565b600082825260208201905092915050565b600061369f82612e97565b6136a98185613683565b93506136b9818560208601612eb3565b6136c281612ee6565b840191505092915050565b60006136d98383613694565b905092915050565b6000602082019050919050565b60006136f982613657565b6137038185613662565b93508360208202850161371585613673565b8060005b85811015613751578484038952815161373285826136cd565b945061373d836136e1565b925060208a01995050600181019050613719565b50829750879550505050505092915050565b6000602082019050818103600083015261377d81846136ee565b905092915050565b7f4e487b7100000000000000000000000000000000000000000000000000000000600052602260045260246000fd5b600060028204905060018216806137cc57607f821691505b602082108114156137e0576137df613785565b5b50919050565b7f4552433732313a20617070726f76656420717565727920666f72206e6f6e657860008201527f697374656e7420746f6b656e0000000000000000000000000000000000000000602082015250565b6000613842602c83612ea2565b915061384d826137e6565b604082019050919050565b6000602082019050818103600083015261387181613835565b9050919050565b7f4552433732313a20617070726f76616c20746f2063757272656e74206f776e6560008201527f7200000000000000000000000000000000000000000000000000000000000000602082015250565b60006138d4602183612ea2565b91506138df82613878565b604082019050919050565b60006020820190508181036000830152613903816138c7565b9050919050565b7f4552433732313a20617070726f76652063616c6c6572206973206e6f74206f7760008201527f6e6572206e6f7220617070726f76656420666f7220616c6c0000000000000000602082015250565b6000613966603883612ea2565b91506139718261390a565b604082019050919050565b6000602082019050818103600083015261399581613959565b9050919050565b7f4552433732313a207472616e736665722063616c6c6572206973206e6f74206f60008201527f776e6572206e6f7220617070726f766564000000000000000000000000000000602082015250565b60006139f8603183612ea2565b9150613a038261399c565b604082019050919050565b60006020820190508181036000830152613a27816139eb565b9050919050565b600081905092915050565b50565b6000613a49600083613a2e565b9150613a5482613a39565b600082019050919050565b6000613a6a82613a3c565b9150819050919050565b7f4661696c656420746f207769746864726177204d617469630000000000000000600082015250565b6000613aaa601883612ea2565b9150613ab582613a74565b602082019050919050565b60006020820190508181036000830152613ad981613a9d565b9050919050565b600081905092915050565b6000613af78385613ae0565b9350613b04838584613186565b82840190509392505050565b6000613b1d828486613aeb565b91508190509392505050565b7f4552433732313a206f776e657220717565727920666f72206e6f6e657869737460008201527f656e7420746f6b656e0000000000000000000000000000000000000000000000602082015250565b6000613b85602983612ea2565b9150613b9082613b29565b604082019050919050565b60006020820190508181036000830152613bb481613b78565b9050919050565b7f4552433732313a2062616c616e636520717565727920666f7220746865207a6560008201527f726f206164647265737300000000000000000000000000000000000000000000602082015250565b6000613c17602a83612ea2565b9150613c2282613bbb565b604082019050919050565b60006020820190508181036000830152613c4681613c0a565b9050919050565b6000613c5882612e97565b613c628185613ae0565b9350613c72818560208601612eb3565b80840191505092915050565b6000613c8a8284613c4d565b915081905092915050565b7f45524337323155524953746f726167653a2055524920717565727920666f722060008201527f6e6f6e6578697374656e7420746f6b656e000000000000000000000000000000602082015250565b6000613cf1603183612ea2565b9150613cfc82613c95565b604082019050919050565b60006020820190508181036000830152613d2081613ce4565b9050919050565b6000613d338285613c4d565b9150613d3f8284613c4d565b91508190509392505050565b6000613d578385612ea2565b9350613d64838584613186565b613d6d83612ee6565b840190509392505050565b60006020820190508181036000830152613d93818486613d4b565b90509392505050565b7f4e6f7420656e6f756768204d6174696320706169642e00000000000000000000600082015250565b6000613dd2601683612ea2565b9150613ddd82613d9c565b602082019050919050565b60006020820190508181036000830152613e0181613dc5565b9050919050565b7f2e00000000000000000000000000000000000000000000000000000000000000600082015250565b6000613e3e600183613ae0565b9150613e4982613e08565b600182019050919050565b60008190508160005260206000209050919050565b60008154613e76816137b4565b613e808186613ae0565b94506001821660008114613e9b5760018114613eac57613edf565b60ff19831686528186019350613edf565b613eb585613e54565b60005b83811015613ed757815481890152600182019150602081019050613eb8565b838801955050505b50505092915050565b6000613ef5828587613aeb565b9150613f0082613e31565b9150613f0c8284613e69565b9150819050949350505050565b6000613f258286613e69565b9150613f318285613c4d565b9150613f3d8284613e69565b9150819050949350505050565b7f7b226e616d65223a202200000000000000000000000000000000000000000000600082015250565b6000613f80600a83613ae0565b9150613f8b82613f4a565b600a82019050919050565b7f222c20226465736372697074696f6e223a20224120646f6d61696e206f6e207460008201527f6865204461727468205369646572206e6574776f726b2e222c2022696d61676560208201527f223a2022646174613a696d6167652f7376672b786d6c3b6261736536342c0000604082015250565b6000614018605e83613ae0565b915061402382613f96565b605e82019050919050565b7f222c226c656e677468223a220000000000000000000000000000000000000000600082015250565b6000614064600c83613ae0565b915061406f8261402e565b600c82019050919050565b7f227d000000000000000000000000000000000000000000000000000000000000600082015250565b60006140b0600283613ae0565b91506140bb8261407a565b600282019050919050565b60006140d182613f73565b91506140dd8286613c4d565b91506140e88261400b565b91506140f48285613c4d565b91506140ff82614057565b915061410b8284613c4d565b9150614116826140a3565b9150819050949350505050565b7f646174613a6170706c69636174696f6e2f6a736f6e3b6261736536342c000000600082015250565b6000614159601d83613ae0565b915061416482614123565b601d82019050919050565b600061417a8261414c565b91506141868284613c4d565b915081905092915050565b7f4e487b7100000000000000000000000000000000000000000000000000000000600052603260045260246000fd5b7f4e487b7100000000000000000000000000000000000000000000000000000000600052601160045260246000fd5b60006141fa82612f52565b91507fffffffffffffffffffffffffffffffffffffffffffffffffffffffffffffffff82141561422d5761422c6141c0565b5b600182019050919050565b7f4552433732313a206f70657261746f7220717565727920666f72206e6f6e657860008201527f697374656e7420746f6b656e0000000000000000000000000000000000000000602082015250565b6000614294602c83612ea2565b915061429f82614238565b604082019050919050565b600060208201905081810360008301526142c381614287565b9050919050565b7f4552433732313a207472616e736665722066726f6d20696e636f72726563742060008201527f6f776e6572000000000000000000000000000000000000000000000000000000602082015250565b6000614326602583612ea2565b9150614331826142ca565b604082019050919050565b6000602082019050818103600083015261435581614319565b9050919050565b7f4552433732313a207472616e7366657220746f20746865207a65726f2061646460008201527f7265737300000000000000000000000000000000000000000000000000000000602082015250565b60006143b8602483612ea2565b91506143c38261435c565b604082019050919050565b600060208201905081810360008301526143e7816143ab565b9050919050565b60006143f982612f52565b915061440483612f52565b925082821015614417576144166141c0565b5b828203905092915050565b600061442d82612f52565b915061443883612f52565b9250827fffffffffffffffffffffffffffffffffffffffffffffffffffffffffffffffff0382111561446d5761446c6141c0565b5b828201905092915050565b7f4552433732313a20617070726f766520746f2063616c6c657200000000000000600082015250565b60006144ae601983612ea2565b91506144b982614478565b602082019050919050565b600060208201905081810360008301526144dd816144a1565b9050919050565b7f4552433732313a207472616e7366657220746f206e6f6e20455243373231526560008201527f63656976657220696d706c656d656e7465720000000000000000000000000000602082015250565b6000614540603283612ea2565b915061454b826144e4565b604082019050919050565b6000602082019050818103600083015261456f81614533565b9050919050565b7f4552433732314d657461646174613a2055524920717565727920666f72206e6f60008201527f6e6578697374656e7420746f6b656e0000000000000000000000000000000000602082015250565b60006145d2602f83612ea2565b91506145dd82614576565b604082019050919050565b60006020820190508181036000830152614601816145c5565b9050919050565b7f4e487b7100000000000000000000000000000000000000000000000000000000600052601260045260246000fd5b600061464282612f52565b915061464d83612f52565b92508261465d5761465c614608565b5b828204905092915050565b600061467382612f52565b915061467e83612f52565b92508261468e5761468d614608565b5b828206905092915050565b60006146a482612f52565b91506146af83612f52565b9250817fffffffffffffffffffffffffffffffffffffffffffffffffffffffffffffffff04831182151516156146e8576146e76141c0565b5b828202905092915050565b7f45524337323155524953746f726167653a2055524920736574206f66206e6f6e60008201527f6578697374656e7420746f6b656e000000000000000000000000000000000000602082015250565b600061474f602e83612ea2565b915061475a826146f3565b604082019050919050565b6000602082019050818103600083015261477e81614742565b9050919050565b6000606082019050818103600083015261479f8186612ef7565b90506147ae602083018561335c565b81810360408301526147c08184612ef7565b9050949350505050565b600081519050919050565b600082825260208201905092915050565b60006147f1826147ca565b6147fb81856147d5565b935061480b818560208601612eb3565b61481481612ee6565b840191505092915050565b60006080820190506148346000830187612fe7565b6148416020830186612fe7565b61484e604083018561335c565b818103606083015261486081846147e6565b905095945050505050565b60008151905061487a81612e08565b92915050565b60006020828403121561489657614895612dd2565b5b60006148a48482850161486b565b91505092915050565b7f4552433732313a206d696e7420746f20746865207a65726f2061646472657373600082015250565b60006148e3602083612ea2565b91506148ee826148ad565b602082019050919050565b60006020820190508181036000830152614912816148d6565b9050919050565b7f4552433732313a20746f6b656e20616c7265616479206d696e74656400000000600082015250565b600061494f601c83612ea2565b915061495a82614919565b602082019050919050565b6000602082019050818103600083015261497e81614942565b905091905056fe4142434445464748494a4b4c4d4e4f505152535455565758595a6162636465666768696a6b6c6d6e6f707172737475767778797a303132333435363738392b2fa26469706673582212205a12928cc312a2040f4524b2e561034236806cdd40c90a01adde7b84e0d80eef64736f6c634300080a00333c7376672076657273696f6e3d22312e302220786d6c6e733d22687474703a2f2f7777772e77332e6f72672f323030302f737667222077696474683d2235303022206865696768743d223437342e3335392220786d6c3a73706163653d227072657365727665222076696577426f783d2230203020353030203437342e333539223e3c706174682066696c6c3d2275726c282342292220643d224d302030683137332e303737763137332e30373748307a222f3e3c672f3e3c672f3e3c70617468207374796c653d2266696c6c3a233030302220643d224d3236342e3633362035362e343832632d332e3333382e3830382d332e3333382e38303820312e37343120332e32383620342e33303920322e31303220362e393320322e3437382031372e32383220322e34373820362e39343820302031342e3537392e3635392031372e37323720312e35333320362e38303420312e3838382032382e3631362031302e3035352033332e3834382031322e36373320382e30333720342e3032332031362e3734312031312e3532332032352e3230392032312e37313920372e38353320392e34353620392e3231312031302e3630372031322e3936372031302e39393120332e3231332e33323920342e3035392e303720332e3631312d312e3039362d312e31392d332e3130312d31322e3230392d31382e3238352d31342e3431392d31392e3836392d31342e3937372d31302e3734332d33372e3736392d32322e3431382d35352e3039342d32382e3232322d392e3131342d332e3035342d31322e3235372d332e3534342d32342e3938312d332e3839352d382e3030332d2e32322d31362e3035352d2e3033392d31372e3839312e343035222f3e3c70617468207374796c653d2266696c6c3a233030302220643d224d3234382e3530342036322e323038633020322e3036392031322e3233382031302e3239312032302e3036312031332e34373420382e35313220332e3436342032382e3533372031382e3131362033342e3238312032352e30383820342e32313320352e31312031352e3339332032372e3830332031362e3830382033342e3131322e35393820322e36363420312e3432392031332e36313620312e3834372032342e3333382e3736312031392e3439322e3736312031392e3439322d312e3831352032302e3136352d312e3435392e3338322d372e3538382d2e3733352d31342e3132332d322e3536382d362e3335322d312e3738352d31342e3635342d332e3737322d31382e3434392d342e3431392d332e3739352d2e3634382d382e3032382d312e3432362d392e3430342d312e37332d332e3833382d2e3834362d332e31333920322e3434312e39363820342e35363520342e35343920322e3335322034342e3437342031392e3339392034352e3433372031392e3339392e3430382030202e3532382d322e3935322e3236352d362e3535392d2e3533372d372e3430392d312e3232322d362e3930392031312e3639372d382e356c352e3830322d2e3731342e3331362d31302e3734382e3331362d31302e37343720332e33333820362e33393463312e38333620332e35313620332e37363820362e33393520342e32393620362e3339372e3532382e30303120352e3633382d312e37352031312e3335352d332e3839312031302e3937392d342e3131322031362e38312d342e3637362032392e3430372d322e383420332e3336352e343920362e3235332e37373920362e3431372e36342e3536362d2e3437392d362e3131342d31362d392e30332d32302e3937322d342e3738382d382e3136392d32362e3633372d33352e3233352d33342e38332d34332e3134342d362e3534332d362e3331382d392e38312d382e3337382d32332e3139312d31342e3632342d31392e3231382d382e3937322d32352e3430322d31302e3834322d33352e3836312d31302e3834322d372e33303620302d31302e3133392d2e3732382d32352e3937342d362e3637342d31382e3537312d362e3937342d31392e3933362d372e3335382d31392e3933362d352e353938222f3e3c70617468207374796c653d2266696c6c3a233030302220643d224d3230332e3434362037342e3537632d32302e34343820312e3739382d33382e3834392031362e3033322d35392e3131352034352e3732362d382e37382031322e3836332d31332e3235382032322e3831372d31372e3038362033372e3936372d362e3133312032342e3237362d372e3035352033322e3338332d362e3831392035392e38352e3138352032312e3535342d2e3130312032362e3536332d312e3939342033352e3034342d332e3138392031342e3238342d362e3430312032342e3039342d31312e3233332033342e3239392d352e36342031312e3931332d31322e3130332032372e3938322d32362e3837372036362e3832326132323930372e3136382032323930372e3136382030203020312d31362e3035342034322e313039632d322e30383120352e3431362d332e3738332031302e3239372d332e3738332031302e383437203020322e3620342e3733352e3338382031322e3832342d352e3939382031312e3233372d382e3836362031352e3030312d31312e3430362033362e3132382d32342e3336332031382e3734382d31312e352032332e3738322d31332e3538382033372e3236312d31352e3434342031302e3234372d312e3431312031342e3335312d332e3434372031362e3536312d382e3231332e3836332d312e38363320322e3334332d31302e31343520332e3238382d31382e34303620312e3137332d31302e323620332e3237382d32302e34383520362e3634332d33322e32363220322e37312d392e34383520352e37352d32322e30393820362e3735372d32382e30333120312e3935352d31312e353220322e3632392d31332e3336362031322e3132372d33332e31393820392e3138332d31392e3137372032322e3035392d33342e3432382033352e3130332d34312e35373820342e332d322e33353920392e3336382d352e3838362031312e3236322d372e38346c332e3434332d332e3535322d342e3533352d31302e383934632d322e3439332d352e3939322d342e3330362d31312e3132342d342e3032342d31312e3430342e3238312d2e32383120332e3730372d312e30353820372e3631352d312e37323820372e3235382d312e3234332032302e3331322d2e3033362034332e37313820342e3034372031332e39323420322e3432382033312e36343720342e3434312033322e34303620332e3638342e3337392d2e3338312d2e3133352d352e3535322d312e3133382d31312e3439342d322e3038372d31322e3335312d31332e3033342d34312e3536372d31392e33332d35312e3539312d382e3536332d31332e3633372d31322e36352d31372e3936332d32302e3132312d32312e3331352d332e3930362d312e3735332d382e3530392d342e3337312d31302e3233312d352e3831382d332e3839382d332e32382d31312e36352d372e3038322d31362e3336332d382e3032332d362e31312d312e3232322d352e363420312e38393720312e32373720382e34333820332e34363620332e323820392e3531322031312e3139332031332e3930362031382e32303820342e32373420362e3832332031312e3833372031372e3431332031362e3830332032332e35333220392e3937372031322e3239312031322e3032362031352e3734362031372e3332332032392e32303420352e3135322031332e30393120322e3730322031322e3231332d382e3533322d332e3035362d332e3832362d352e322d31342e32352d31362e3936322d32332e3136352d32362e3134342d31332e3835312d31342e3236322d31372e30322d31382e3230352d32312e3737322d32372e3038372d332e3035392d352e3731372d372e3139372d31322e3331332d392e3139332d31342e3635372d352e3730392d362e3730332d31362e3237392d392e3135362d33332e3038342d372e3637386d3137312e3838352039382e323839633020372e3136332031312e3133342031372e3335392031332e39362031322e3738362e3430372d2e3635392d2e3331342d322e3138312d312e3630342d332e3338322d322e3731312d322e3532372d332e30332d342e3332312d2e3736332d342e33323120332e333231203020352e34363820312e36323220382e35323920362e34343720312e38353920322e39333220352e32353320362e31393520382e32303920372e38393620362e32333520332e3538372032302e3033382031382e3936312032332e3038312032352e37303820342e37332031302e3438352031382e3831382035342e3237312032332e3534352037332e31373220322e3731322031302e38343720362e3935352032392e35313720392e34332034312e34393120342e32382032302e37313420382e3431352033372e343720392e3532362033382e35383120312e33393820312e33393920312e3832382d382e3335342e37352d31372e3130342d332e3336342d32372e3335392d32342e3239312d3130312e3835322d33392e3032372d3133382e39322d342e3530372d31312e33342d31332e3738322d32392e3433372d31362e3637392d33322e3534352d342e3931342d352e3237372d31372e3032332d31312e3239352d32352e3035372d31322e3435362d31332e3230332d312e3930392d31332e3839392d312e3737362d31332e38393920322e3634396d2d31382e39313220332e313732632d352e36363720322e32392d362e31343220322e3736342d362e34353220362e34352d2e32393820332e35343520332e3536392031362e35393720342e3931372031362e3539372e323932203020322e3037312d2e37393620332e3935322d312e37363720332e3234312d312e36373720332e3338362d322e303320322e3733382d362e3735312d2e3436362d332e3430342d2e3135382d36202e3937342d382e313920312e3733382d332e333620322e3235342d382e3930332e3832332d382e3834352d2e3435392e3031382d332e35383920312e3134362d362e39353420322e353037222f3e3c70617468207374796c653d2266696c6c3a233030302220643d224d3235392e373834203139312e323531632d392e353520322e37332d33332e3038352031342e3738362d34302e3130362032302e3534332d362e31373320352e3036342d31372e3835392031382e3235392d31372e3838362032302e3139322d2e30333720322e3836332031332e3339362031312e3236352031352e37313820392e3833322e3434362d2e32373720332e3039312d332e393320352e3837342d382e31313720372e3739382d31312e3732392032392e3933362d32372e3934372034332e3534382d33312e39303520392e3139362d322e3637322033322e3139312d312e3834332033392e35353520312e34323920322e38323920312e32353520352e34343620322e37373720352e38313820332e333820312e30353620312e3730372d362e31383520322e3436372d32332e36313320322e3438322d31342e38372e30312d31362e3435312e3231372d32322e35323920322e3934352d332e35393520312e3631332d362e35333820332e3431332d362e35333820342030202e35383820312e30333720322e35323120322e33303120342e32393820312e37383620322e35303620332e31363920332e32333320362e31363920332e32333320372e37313420302031322e34373920382e34363720382e3636392031352e3431342d322e39363520352e3430382d342e39383620362e3431382d392e32373320342e3634322d342e3331372d312e37392d362e3735352d362e3232322d362e3735352d31322e32393220302d332e3238392d2e3935372d352e3937362d332e3338372d392e3530362d332e3338382d342e3932312d332e3338382d342e3932312d362e3339372d332e3031362d392e38303920362e3230392d32312e3336362031352e3432322d32312e3336362031372e303333203020322e3539332031332e3733352031332e3339312032322e3031332031372e33303920382e33303920332e3933322032322e39323820362e3336322033342e37323420352e37373720382e3237382d2e3431322031302e3732392d312e3036342031392e3635342d352e32346c31302e3139382d342e37363820362e35313720352e34303363332e35383620322e39363920372e37353820362e32313720392e32373220372e32313520322e37353320312e38313320322e37353320312e3831332e35323820342e3331332d322e31343320322e34312d322e37313320322e3437372d31352e35373420312e3832322d31392e3231322d2e3937372d33362e33343220312e3834372d34382e33393620372e3937362d352e363920322e3839322d362e313120332e3338312d362e30303420362e3934312e30363320322e31303920322e34313920392e36343320352e3233382031362e37343620332e32393720382e33313220352e3339332031352e353620352e3838332032302e3333372e34313920342e30383220312e31333720372e36353220312e35393520372e3933362e3435392e32383520322e3838312d322e39323620352e3337392d372e31333320372e3538362d31322e3736372032332e3639382d32322e3936332034352e3230372d32382e36303520362e3131372d312e3630362031312e3433322d332e3430362031312e3830362d342e3030312e3337342d2e3539352e3937332d342e36363820312e3333322d392e3035322e3335392d342e33383520312e3634372d31302e36333220322e3836342d31332e3838356c322e3231342d352e3931322d372e3034362d392e3133632d362e3731372d382e3730332d372e30382d392e3438392d372e3736342d31362e3839332d2e3339362d342e3236392d2e3938372d31302e3036392d312e33312d31322e3838392d2e3539322d352e3132332d2e3539322d352e31323320352e3838382d362e33333920332e3536332d2e36363920392e3239332d312e3534322031322e3733342d312e39343120362e3235352d2e37323420362e3235352d2e37323420362e37373320322e3830396c2e35313720332e3533342d392e3237362d2e373733632d392e3237372d2e3737312d392e3237372d2e3737312d392e32373720322e313431203020322e3536332e34343720322e39313320332e37333920322e39313320322e303536203020362e3036312e33313820382e3930312e37303820342e3034312e35353420352e313620312e31353820352e313620322e373832203020312e38342d2e39343420322e3037342d382e33343420322e3037342d362e3620302d382e3337392e3334382d382e353120312e363637613239342e303835203239342e3038352030203020302d2e32373820322e393638632d2e3037382e39303120322e33313420312e323220372e38303920312e30343220362e3538382d2e32313320382e3034322e30363220382e36343820312e3634312e39393620322e3539372e32383220332e3036332d352e37363720332e3735392d332e3634362e3431382d352e32333820312e3130392d352e32333820322e3237203020312e323520312e38313220312e38313720372e32333220322e32363720352e3732312e34373620382e34383920312e3430352031332e32343820342e34343820352e38313420332e37313820362e34343420332e3836312031382e373120342e32352031342e3932362e3437342031392e3638352d2e3836372032362e3939362d372e36313920342e3639372d342e33333820342e37332d342e34313920342e3232342d31302e3831312d2e3539312d372e3530392d362e3534322d31382e3638362d31322e3032362d32322e35392d352e3639332d342e3035342d32312e3938382d342e3336382d32372e3131392d2e3532342d322e30363220312e3534352d322e30343920312e3737362e3535372031302e30353820322e30363620362e353720332e33323620382e383220352e3539362031302e30303920332e37353920312e39363820342e39373220362e35343120322e3636382031302e3035362d322e333720332e36322d362e36353420342e3439382d31312e323520322e3330372d342e3930322d322e3333372d352e3932342d362e32312d322e3830322d31302e35393720312e3238352d312e38303320322e3332362d342e34353320322e3331332d352e3838382d2e3033342d342e3035332d322e3838342d31332e3735322d332e3939312d31332e3538362d2e3534362e3038342d322e3131392e3439312d332e3439362e3930392d332e33383820312e3032382d332e3331362d312e3537372e3133322d342e38313520332e3531332d332e3330312031362e3733382d372e3837312032322e3835362d372e39303120382e3936332d2e3034332031362e37343220332e3231352032332e31343120392e36393420372e37323620372e38323220382e3537372031312e32323420372e3633392033302e3536332d2e3832322031372e3030362d2e3432382031382e353320372e3532322032382e39343320382e3232332031302e37373120382e3232362031322e3639382e3034312032382e3337382d372e3831372031342e39382d382e3136352031362e3230352d362e3930392032342e32393120312e3739312031312e353120352e3133332032302e35323420392e3333342032352e31373420352e32393820352e38363320362e37383820392e32343520352e3031312031312e3338332d2e3735332e3930392d342e37303720332e3438342d382e37383620352e37322d392e3720352e3332322d34382e3731382033302e33372d35382e3237342033372e3430392d342e31303920332e3032372d392e32353420372e3933322d31312e3433332031302e3839372d322e31373920322e3936382d352e37343520362e3936322d372e39323620382e3837392d342e36393420342e31322d352e38323220332e3630322d392e3937372d342e3539342d312e3438362d322e3933322d352e3836332d392e3231392d392e3733342d31332e3937382d392e3437312d31312e3634382d32352e3231392d33332e3137322d32352e3231392d33342e343720302d312e37333320352e3030392d352e38383720372e3039382d352e38383720332e393938203020362e31323720322e34303920392e3038312031302e32373620342e3638362031322e3437332031322e36312032372e3233382031362e32382033302e33323420342e33363220332e36373120362e35303820332e3531392031312e3731332d2e38323720322e3338322d312e3938392031322e3732382d382e3539312032322e3939312d31342e3637332031382e3038352d31302e3731342033312e3033382d32302e3333362033352e3438352d32362e33353220312e3733362d322e33343720312e3931342d332e3337342e3931372d352e3233372d312e3036382d312e3939392d322e31392d322e3239322d382e3137392d322e3134362d332e3831362e3039332d31312e3934362d2e3433362d31382e3036342d312e3137362d382e3137332d2e3938382d31352e3430362d312e30352d32372e3235382d2e3233342d382e3837312e36312d32312e31343420312e3131382d32372e32373220312e3132382d382e3939342e3031322d31312e3934322e3434362d31352e32393320322e3234312d322e34353920312e3331382d362e33303620322e3233332d392e34343120322e3234312d372e3439312e3032342d382e39343820312e3137312d372e32333920352e3730312e37343520312e39373620312e31343620332e3830322e383920342e3035392d2e3235372e3235382d342e3132382e3837392d382e36303320312e3338332d342e3437342e3530352d31342e39343320322e3137362d32332e32363320332e3731342d382e333220312e3533392d32302e34363420332e3431372d32362e393920342e3137372d382e30352e3933382d31322e33333820312e39342d31332e33343320332e3132342d2e3831342e3935392d322e36323620362e3039322d342e3032312031312e3430352d332e3133352031312e3932312d322e3634312031352e31383120332e3933352032362e303120322e373120342e34363420342e39323820382e34373820342e39323820382e3931362030202e3433382d312e37353220322e3933362d332e38393320352e3534392d322e31343120322e3631332d332e38393320352e3233322d332e38393320352e383135203020322e323920352e3936322031312e35363620382e3530362031332e32333420322e31373320312e34323320342e34353720312e3631362031312e393320312e303120372e3337372d2e3539382031312e3436362d2e3236362032302e32363820312e3634312031302e30333520322e3137362031322e38383220322e3331382033312e35393420312e3538332031312e3533362d2e3435352032332e3031352d312e3439322032362e3134332d322e333620332e3036382d2e3835332031312e3333382d322e35362031382e3337332d332e3739332031342e3131352d322e3437342031332e3036382d312e3830342032352e3033322d31362e303320342e3330382d352e31323120342e372d352e3331382031322e3233392d362e3136312031312e3330372d312e32362033372e3131342d31322e35322035332e3333332d32332e3236372031372e35362d31312e3633372033342e3038352d32332e37382033352e3230312d32352e38363420312e31352d322e3134392d312e3033352d31362e3038382d362e33342d34302e3434322d2e3933342d342e3238332d342e3338392d32312e3330352d372e3637392d33372e3832372d382e3138382d34312e3131362d31372e3433332d37322e31372d32342e3930342d38332e3635342d352e3833322d382e3936332d31332e3831312d31372e35332d31382e3333332d31392e3637342d352e39372d322e3833332d31322e3239332d322e3138312d33312e33313820332e3233312d31392e37353220352e3631372d33312e31343720372e3731342d33372e33373820362e38382d322e3239372d2e3330382d382e3637342d332e3135362d31342e3137312d362e3332392d31312e3333342d362e3534312d31392e3337362d392e3334322d33312e3736362d31312e3036342d31312e3831352d312e3634332d31382e3838322d312e3338392d32372e3138382e393836222f3e3c70617468207374796c653d2266696c6c3a233030302220643d224d3230302e323831203234372e373039632d332e3133322e3830372d372e30342031302e3936312d392e3632322032352d312e32373620362e3932372d322e3534372031332e3637392d322e3832382031352e3030332d2e34323220312e3939372e37373220332e31363220362e39393620362e38323320342e313320322e34332031342e35313520382e36352032332e3038342031332e3832362031392e3133322031312e3535372034322e342032332e3831382035352e3238362032392e3133362031302e35333920342e3334382031302e393120342e3435312031302e393120332e30313420302d2e3533372d352e3133322d332e312d31312e3430342d352e3639372d31342e3034372d352e3831372d33312e3733332d31372d33332e3237362d32312e3033392d312e3038322d322e3833332d342e3237322d32352e3933382d342e3237322d33302e39333420302d312e342e3337362d322e3534342e3833362d322e3534332e343539203020332e38333820322e37343520372e35303920362e31303120332e36373120332e33353620372e30303920362e31303820372e34313620362e31313720312e37392e30343220382e31393920392e3735372031312e3630352031372e35393120342e3339392031302e31313720362e3630312031312e37393920352e37363620342e3430322d2e3331392d322e3833372d332e3233312d31302e3533382d362e3639332d31372e3731352d342e3831332d392e3937312d372e3331322d31332e37362d31312e3634362d31372e3635372d352e3535392d342e3939352d34352e3437392d33322e3332372d34362e3836362d33322e3038382d2e3430392e3037312d312e3636382e3336362d322e3739392e3635396d3136302e3834342031332e393334632d352e363320312e3137392d352e32393420322e3539362e38353820332e36333720362e34333920312e30383820382e38383720342e37303420382e39352031332e3232322e30353120362e3830332e30353120362e3830332031312e3134352031362e3730352031342e3236332031322e3732392032332e3333312031392e37352032342e3835392031392e32353320322e3437362d2e3830362031322e3136342d32342e3835392031332e3635362d33332e3839382e3738392d342e3738362d2e3533362d362e3135372d392e34342d392e3738312d362e3031362d322e3434382d31302e3032362d332e3138322d32302e3830332d332e3830382d31312e3030322d2e36342d31342e3332382d312e3236322d31382e3931332d332e35352d342e37352d322e3336382d362e3235372d322e36332d31302e3331322d312e3738316d2d33372e3239362035302e373134632d31332e3732342031372e3732362d31362e3834352032302e3731372d32362e3035392032342e3938382d332e31383420312e3437362d362e35353920332e3332312d372e35303120342e3130342d322e31343620312e3738322d322e32333420372e3132332d2e31343320382e38353820322e32353520312e383720372e39353920322e31303820372e3539322e3331332d2e3536312d322e37343720322e3037342d352e38313520372e3238372d382e34383320332e3338362d312e37333120362e3232362d342e32393520382e30312d372e323320342e3030322d362e353820342e3131372d362e34373220362e32313920352e3734332e36363420332e38353920312e30303120342e31373220342e34383920342e31373220332e343237203020332e3736392d2e32393820332e3736392d332e32353820302d312e3739322d2e3531392d372e3030332d312e3135382d31312e3538322d312e3034392d372e3534312d2e3935312d382e36363320312e3034392d31312e39353320322e3230382d332e36323920322e3230382d332e36323920332e3336332d2e3933362e39333320322e31373120362e3735382032342e37373720362e3735382032362e3232322030202e38353920372e3639362e33323420382e3235322d2e3537322e3332372d2e35332d2e3133362d342e3430392d312e3032392d382e3632322d2e3839332d342e3231312d312e3633322d31312e3033382d312e3634322d31352e3136372d2e3031372d372e3135312e3130362d372e35303920322e3630322d372e35303920322e373836203020322e3836382e32363920372e3538322032342e31393720312e33363820362e39353420312e33363820362e39353420362e31353320362e39353420322e363331203020342e3737392d2e33373620342e3737332d2e3833362d2e3030362d2e3435392d2e3735322d372e3039312d312e3635392d31342e3734312d2e3930372d372e3634382d312e3635342d31342e3033332d312e3635392d31342e3138362d2e3030352d2e3135332e3938342d2e32373920322e3139352d2e32373920322e323632203020322e3631372e38363420332e38383820392e3435372e33363220322e34343820312e34383420382e30383120322e3439322031322e3531346c312e38333620382e3036366831302e373138762d372e32333263302d332e3937392e3337342d372e3233332e3833352d372e3233312e3435392e30303120322e32363220322e32363320342e30303920352e30323720312e37343520322e37363120352e33323620362e37383620372e39353420382e39346c342e373820332e39313720332e3937372d322e36393820332e3937362d322e3639382d332e3531312d342e383534632d392e3534322d31332e3138382d32302e3631312d32362e3033392d32372e3633342d33322e3038326c2d372e3739312d362e3730362d31312e3933322d2e303131632d362e3536322d2e3030382d31332e3732332d2e3330392d31352e3931332d2e3637312d332e3938332d2e3635392d332e3938332d2e3635392d31362e3932362031362e3035366d2d3134312e3333392d362e313933632d3120332e3832332d332e3630372031352e3436332d352e3739312032352e3836342d372e3132332033332e3930312d352e3539382033312e3734372d32372e3636322033392e3036312d31372e39343220352e3934372d32332e36373620382e3634332d34312e3637362031392e3630322d31302e333220362e3238332d31352e3235312031302e3233352d32342e3335372031392e35322d362e32373820362e3430342d31312e3732342031322e3837322d31322e3130312031342e3337362d312e35363820362e323520342e3334322031302e3939352032312e3031332031362e3836392031312e34343520342e3033332032332e36393820352e3735362034312e30383820352e3737372032382e3831372e3033372035302e3231312d31322e3034342035322e3630352d32392e3730332e3331382d322e3335382e3738372d31302e33353520312e3033392d31372e3736362e3530312d31342e37383120312e3339392d31372e353820372e3532382d32332e34353620352e3437382d352e32353520392e3037332d362e3338312033382e3238312d31312e3937372033392e3038362d372e3438392033392e3931322d372e3638382034302e3239332d392e36372e3239322d312e3531372d322e3033372d312e3833382d31372e3233382d322e3336352d392e3636352d2e3333372d32342e3038352d312e3632392d33322e3033382d322e38372d372e3935352d312e3234332d31392e3130392d322e3630392d32342e37392d332e3033382d352e3637392d2e3432382d31302e3539322d312e3230392d31302e3931372d312e3733382d2e3332372d2e3532382d2e3235382d322e3031372e3135332d332e33312e3731352d322e32353820312e3233382d322e3332372031332e3134332d312e37342031312e3439312e3536352034312e313120332e3539322036302e38333120362e32313620342e3630392e3631332031302e38342e3736332031332e3834342e3333356c352e3436332d2e3738322d31302e3530382d342e313531632d352e3737392d322e3238352d31342e3736322d352e3538382d31392e3936322d372e3334332d31312e3734382d332e3936332d31372e36342d362e39342d33372e3131322d31382e3733392d31332e3339332d382e3131342d32372e35362d31352e3932382d32382e3838372d31352e3932382d2e32333320302d312e32343120332e3132392d322e32343120362e3935346d3232382e3831372033392e373639632d342e38353920312e39362d342e3731332031312e3931362e3232332031352e31353220332e35383720322e33343920362e36323920312e33313120352e3031312d312e37312d312e3333362d322e3439332d312e3536382d382e3938322d2e3332372d392e3030362e3435392d2e303120312e3538342d2e34393120322e3439382d312e30363820312e3432372d2e39303220312e3334372d312e32392d2e3535372d322e3732392d322e3532372d312e39312d332e3437372d312e3939382d362e38352d2e363339222f3e3c70617468207374796c653d2266696c6c3a233030302220643d224d3139382e313339203431392e303432632d2e36303620352e3336392d322e31363120372e3334312d31322e3539332031352e3935322d342e31333720332e3431342d352e3831372031302e3531342d332e3330322031332e39333920312e33363220312e38353420322e373920322e3039392031302e37393320312e38353520352e3630312d2e313720392e3732392d2e3832372031302e3530362d312e36363720312e3730372d312e38343820332e3739382d31302e37363220332e3739382d31362e313920302d342e3433372d352e38382d31392e3133312d372e3635352d31392e3133312d2e35323620302d312e32323120322e3335392d312e35343720352e323432222f3e3c7465787420783d2231352220793d2234352220666f6e742d73697a653d2232382220666f6e742d66616d696c793d2266616e746173792220666f6e742d7765696768743d22626f6c64223e",
	"linkReferences": {},
	"deployedLinkReferences": {}
}